{
  "_format": "hh-sol-artifact-1",
  "contractName": "ManulBuildWeb3Token",
  "sourceName": "contracts/BuildWeb3Token.sol",
  "abi": [
    {
      "inputs": [],
      "stateMutability": "nonpayable",
      "type": "constructor"
    },
    {
      "inputs": [
        {
          "internalType": "address",
          "name": "from",
          "type": "address"
        },
        {
          "internalType": "address",
          "name": "to",
          "type": "address"
        },
        {
          "internalType": "uint256",
          "name": "amount",
          "type": "uint256"
        }
      ],
      "name": "_transfer",
      "outputs": [],
      "stateMutability": "nonpayable",
      "type": "function"
    },
    {
      "inputs": [
        {
          "internalType": "address",
          "name": "",
          "type": "address"
        },
        {
          "internalType": "address",
          "name": "",
          "type": "address"
        }
      ],
      "name": "allowance",
      "outputs": [
        {
          "internalType": "uint256",
          "name": "",
          "type": "uint256"
        }
      ],
      "stateMutability": "view",
      "type": "function"
    },
    {
      "inputs": [
        {
          "internalType": "address",
          "name": "",
          "type": "address"
        }
      ],
      "name": "balanceOf",
      "outputs": [
        {
          "internalType": "uint256",
          "name": "",
          "type": "uint256"
        }
      ],
      "stateMutability": "view",
      "type": "function"
    },
    {
      "inputs": [
        {
          "internalType": "address",
          "name": "_from",
          "type": "address"
        },
        {
          "internalType": "address",
          "name": "_to",
          "type": "address"
        },
        {
          "internalType": "uint256",
          "name": "_value",
          "type": "uint256"
        }
      ],
      "name": "transferFrom",
      "outputs": [
        {
          "internalType": "bool",
          "name": "success",
          "type": "bool"
        }
      ],
      "stateMutability": "nonpayable",
      "type": "function"
    }
  ],
  "bytecode": "0x608060405234801561001057600080fd5b506105a5806100206000396000f3fe608060405234801561001057600080fd5b506004361061004c5760003560e01c806323b872dd1461005157806330e0789e1461008157806370a082311461009d578063dd62ed3e146100cd575b600080fd5b61006b600480360381019061006691906103b8565b6100fd565b6040516100789190610426565b60405180910390f35b61009b600480360381019061009691906103b8565b610231565b005b6100b760048036038101906100b29190610441565b6102e2565b6040516100c4919061047d565b60405180910390f35b6100e760048036038101906100e29190610498565b6102fa565b6040516100f4919061047d565b60405180910390f35b6000600260008573ffffffffffffffffffffffffffffffffffffffff1673ffffffffffffffffffffffffffffffffffffffff16815260200190815260200160002060003373ffffffffffffffffffffffffffffffffffffffff1673ffffffffffffffffffffffffffffffffffffffff1681526020019081526020016000205482111561018857600080fd5b81600260008673ffffffffffffffffffffffffffffffffffffffff1673ffffffffffffffffffffffffffffffffffffffff16815260200190815260200160002060003373ffffffffffffffffffffffffffffffffffffffff1673ffffffffffffffffffffffffffffffffffffffff16815260200190815260200160002060008282546102149190610507565b92505081905550610226848484610231565b600190509392505050565b80600160008573ffffffffffffffffffffffffffffffffffffffff1673ffffffffffffffffffffffffffffffffffffffff16815260200190815260200160002060008282546102809190610507565b9250508190555080600160008473ffffffffffffffffffffffffffffffffffffffff1673ffffffffffffffffffffffffffffffffffffffff16815260200190815260200160002060008282546102d6919061053b565b92505081905550505050565b60016020528060005260406000206000915090505481565b6002602052816000526040600020602052806000526040600020600091509150505481565b600080fd5b600073ffffffffffffffffffffffffffffffffffffffff82169050919050565b600061034f82610324565b9050919050565b61035f81610344565b811461036a57600080fd5b50565b60008135905061037c81610356565b92915050565b6000819050919050565b61039581610382565b81146103a057600080fd5b50565b6000813590506103b28161038c565b92915050565b6000806000606084860312156103d1576103d061031f565b5b60006103df8682870161036d565b93505060206103f08682870161036d565b9250506040610401868287016103a3565b9150509250925092565b60008115159050919050565b6104208161040b565b82525050565b600060208201905061043b6000830184610417565b92915050565b6000602082840312156104575761045661031f565b5b60006104658482850161036d565b91505092915050565b61047781610382565b82525050565b6000602082019050610492600083018461046e565b92915050565b600080604083850312156104af576104ae61031f565b5b60006104bd8582860161036d565b92505060206104ce8582860161036d565b9150509250929050565b7f4e487b7100000000000000000000000000000000000000000000000000000000600052601160045260246000fd5b600061051282610382565b915061051d83610382565b9250828203905081811115610535576105346104d8565b5b92915050565b600061054682610382565b915061055183610382565b9250828201905080821115610569576105686104d8565b5b9291505056fea264697066735822122092878445db3058df72b4d669d7064f679c19b47cc0ec4191ec1b0f306b4cc0cf64736f6c63430008110033",
  "linkReferences": {},
  "deployedLinkReferences": {}
}